:020000040800F2
:100000000000022091340008453200084D320008FB
:10001000553200085D32000865320008000000001B
:100020000000000000000000000000006D32000829
:100030007B32000800000000893200089732000877
:10004000E1340008E1340008E1340008E13400083C
:10005000E1340008E1340008E1340008E13400082C
:10006000E1340008E1340008E1340008E13400081C
:10007000E1340008E1340008E1340008E13400080C
:10008000E1340008E1340008E1340008E1340008FC
:10009000A5320008E1340008E1340008E13400082A
:1000A000E1340008E1340008E1340008E1340008DC
:1000B000E1340008E1340008E1340008E1340008CC
:1000C000E1340008E1340008E1340008E1340008BC
:1000D000E1340008B9320008CD320008E1340008EC
:1000E000E1340008E1340008E1340008E13400089C
:1000F000E1340008E1340008E1340008E13400088C
:10010000E1340008E1340008E1340008E13400087B
:10011000E1340008E1340008E1340008E13400086B
:10012000E1340008E1340008E1340008E13400085B
:10013000E1340008E1340008E1340008E13400084B
:10014000E1340008E1340008E1340008E13400083B
:10015000E1340008E1340008E1340008E13400082B
:10016000E1340008E1340008E1340008E13400081B
:10017000E1340008E1340008E1340008E13400080B
:10018000E1340008E1340008E1340008E1340008FB
:10019000E134000800000000E1340008E134000808
:1001A000E1340008E1340008E1340008E1340008DB
:1001B000E1340008E1340008E1340008E1340008CB
:1001C000E1340008E1340008E1340008E1340008BB
:0801D000E1340008E1340008ED
:1001E00010B5054C237833B9044B13B10448AFF371
:1001F00000800123237010BD500300200000000088
:10020000C02C010808B5034B1BB103490348AFF3E9
:10021000008008BD0000000054030020C02C01082D
:1002200001F0FF01102A2BDB10F0070F08D010F8A7
:10023000013B013A8B422DD010F0070F42B3F6D1AB
:10024000F0B441EA012141EA014122F007047FF0C4
:1002500000070023F0E80256083C85EA010586EA1B
:10026000010685FA47F5A3FA87F586FA47F6A5FA57
:1002700087F68EB9EED1F0BC01F0FF0102F0070263
:1002800032B110F8013B013A83EA010313B1F8D10E
:100290000020704701387047002D06BF35460338EF
:1002A000073815F0010F07D1013015F4807F02BF28
:1002B000013015F4C03F0130F0BC0138704700BF79
:1002C000034613F8012B002AFBD1181A0138704796
:1002D00081F0004102E000BF83F0004330B54FEAF7
:1002E00041044FEA430594EA050F08BF90EA020F64
:1002F0001FBF54EA000C55EA020C7FEA645C7FEAF7
:10030000655C00F0E2804FEA5454D4EB5555B8BF19
:100310006D420CDD2C4480EA020281EA030382EA8A
:10032000000083EA010180EA020281EA0303362D1C
:1003300088BF30BD11F0004F4FEA01314FF4801CEF
:100340004CEA113102D0404261EB410113F0004F01
:100350004FEA03334CEA133302D0524263EB4303B8
:1003600094EA050F00F0A780A4F10104D5F1200E56
:100370000DDB02FA0EFC22FA05F2801841F10001B1
:1003800003FA0EF2801843FA05F359410EE0A5F185
:1003900020050EF1200E012A03FA0EFC28BF4CF0B6
:1003A000020C43FA05F3C01851EBE37101F000456C
:1003B00007D54FF0000EDCF1000C7EEB00006EEB79
:1003C0000101B1F5801F1BD3B1F5001F0CD3490803
:1003D0005FEA30004FEA3C0C04F101044FEA44525A
:1003E00012F5800F80F09A80BCF1004F08BF5FEAE1
:1003F000500C50F1000041EB045141EA050130BDC1
:100400005FEA4C0C404141EB0101013C28BFB1F5D2
:10041000801FE9D291F0000F04BF01460020B1FA1D
:1004200081F308BF2033A3F10B03B3F120020CDAF0
:100430000C3208DD02F1140CC2F10C0201FA0CF0CE
:1004400021FA02F10CE002F11402D8BFC2F1200C33
:1004500001FA02F120FA0CFCDCBF41EA0C019040E9
:10046000E41AA2BF01EB0451294330BD6FEA040432
:100470001F3C1CDA0C340EDC04F11404C4F120021D
:1004800020FA04F001FA02F340EA030021FA04F32F
:1004900045EA030130BDC4F10C04C4F1200220FA86
:1004A00002F001FA04F340EA0300294630BD21FAC4
:1004B00004F0294630BD94F0000F83F4801306BF8A
:1004C00081F480110134013D4EE77FEA645C18BF7E
:1004D0007FEA655C29D094EA050F08BF90EA020F15
:1004E00005D054EA000C04BF1946104630BD91EA0D
:1004F000030F1EBF0021002030BD5FEA545C05D110
:100500004000494128BF41F0004130BD14F580044E
:100510003CBF01F5801130BD01F0004545F0FE41C2
:1005200041F470014FF0000030BD7FEA645C1ABFF7
:10053000194610467FEA655C1CBF0B46024650EA2E
:10054000013406BF52EA033591EA030F41F400215A
:1005500030BD00BF90F0000F04BF0021704730B5E0
:100560004FF4806404F132044FF000054FF00001B5
:1005700050E700BF90F0000F04BF0021704730B576
:100580004FF4806404F1320410F0004548BF40424B
:100590004FF000013EE700BF42004FEAE2014FEAA0
:1005A00031014FEA02701FBF12F07F4393F07F4F7B
:1005B00081F06051704732F07F4208BF704793F07E
:1005C0007F4F04BF41F40021704730B54FF4607491
:1005D00001F0004521F000411CE700BF50EA010294
:1005E00008BF704730B54FF000050AE050EA01023D
:1005F00008BF704730B511F0004502D5404261EBAD
:1006000041014FF4806404F132045FEA915C3FF4ED
:10061000D8AE4FF003025FEADC0C18BF03325FEA8A
:10062000DC0C18BF033202EBDC02C2F1200300FA3B
:1006300003FC20FA02F001FA03FE40EA0E0021FA60
:1006400002F11444BDE600BF70B54FF0FF0C4CF44E
:10065000E06C1CEA11541DBF1CEA135594EA0C0F00
:1006600095EA0C0F00F0DEF82C4481EA030621EA3B
:100670004C5123EA4C5350EA013518BF52EA033576
:1006800041F4801143F4801338D0A0FB02CE4FF028
:100690000005E1FB02E506F00042E0FB03E54FF058
:1006A0000006E1FB03569CF0000F18BF4EF0010E50
:1006B000A4F1FF04B6F5007F64F5407404D25FEA4C
:1006C0004E0E6D4146EB060642EAC62141EA5551FF
:1006D0004FEAC52040EA5E504FEACE2EB4F1FD0C41
:1006E00088BFBCF5E06F1ED8BEF1004F08BF5FEABF
:1006F000500E50F1000041EB045170BD06F0004671
:1007000046EA010140EA020081EA0301B4EB5C041D
:10071000C2BFD4EB0C0541EA045170BD41F4801115
:100720004FF0000E013C00F3AB8014F1360FDEBF3A
:10073000002001F0004170BDC4F10004203C35DA16
:100740000C341BDC04F11404C4F1200500FA05F399
:1007500020FA04F001FA05F240EA020001F000423A
:1007600021F0004110EBD37021FA04F642EB0601B0
:100770005EEA430E08BF20EAD37070BDC4F10C04DA
:10078000C4F1200500FA04F320FA05F001FA04F29E
:1007900040EA020001F0004110EBD37041F100018A
:1007A0005EEA430E08BF20EAD37070BDC4F1200595
:1007B00000FA05F24EEA020E20FA04F301FA05F2FD
:1007C00043EA020321FA04F001F0004121FA04F2A5
:1007D00020EA020000EBD3705EEA430E08BF20EA75
:1007E000D37070BD94F0000F0FD101F000464000AF
:1007F00041EB010111F4801F08BF013CF7D041EA31
:10080000060195F0000F18BF704703F00046520034
:1008100043EB030313F4801F08BF013DF7D043EA05
:100820000603704794EA0C0F0CEA135518BF95EABB
:100830000C0F0CD050EA410618BF52EA4306D1D142
:1008400081EA030101F000414FF0000070BD50EA61
:10085000410606BF1046194652EA430619D094EAEB
:100860000C0F02D150EA013613D195EA0C0F05D1D5
:1008700052EA03361CBF104619460AD181EA030129
:1008800001F0004141F0FE4141F470014FF00000E1
:1008900070BD41F0FE4141F4780170BD70B54FF07C
:1008A000FF0C4CF4E06C1CEA11541DBF1CEA1355FC
:1008B00094EA0C0F95EA0C0F00F0A7F8A4EB0504DE
:1008C00081EA030E52EA03354FEA013100F08880D5
:1008D0004FEA03334FF0805545EA131343EA12639E
:1008E0004FEA022245EA111545EA10654FEA002653
:1008F0000EF000419D4208BF964244F1FD0404F50C
:10090000407402D25B084FEA3202B61A65EB030567
:100910005B084FEA32024FF480104FF4002CB6EB24
:10092000020E75EB030E22BFB61A754640EA0C00A4
:100930005B084FEA3202B6EB020E75EB030E22BFE4
:10094000B61A754640EA5C005B084FEA3202B6EB25
:10095000020E75EB030E22BFB61A754640EA9C00E4
:100960005B084FEA3202B6EB020E75EB030E22BFB4
:10097000B61A754640EADC0055EA060E18D04FEA72
:10098000051545EA16754FEA06164FEAC30343EA12
:1009900052734FEAC2025FEA1C1CC0D111F4801FDF
:1009A0000BD141EA00014FF000004FF0004CB6E7D8
:1009B00011F4801F04BF01430020B4F1FD0C88BF77
:1009C000BCF5E06F3FF6AFAEB5EB030C04BFB6EB82
:1009D000020C5FEA500C50F1000041EB045170BD75
:1009E0000EF0004E4EEA113114EB5C04C2BFD4EBA2
:1009F0000C0541EA045170BD41F480114FF0000E26
:100A0000013C90E645EA060E8DE60CEA135594EAA1
:100A10000C0F08BF95EA0C0F3FF43BAF94EA0C0FA4
:100A20000AD150EA01347FF434AF95EA0C0F7FF419
:100A300025AF104619462CE795EA0C0F06D152EA6D
:100A400003353FF4FDAE1046194622E750EA410651
:100A500018BF52EA43067FF4C5AE50EA41047FF462
:100A60000DAF52EA43057FF4EBAE12E74FF0FF3CC7
:100A700006E000BF4FF0010C02E000BF4FF0010C98
:100A80004DF804CD4FEA410C7FEA6C5C4FEA430C11
:100A900018BF7FEA6C5C1BD001B050EA410C0CBF60
:100AA00052EA430C91EA030F02BF90EA020F0020C2
:100AB000704710F1000F91EA030F58BF994208BF29
:100AC00090422CBFD8176FEAE37040F001007047E6
:100AD0004FEA410C7FEA6C5C02D150EA013C07D13D
:100AE0004FEA430C7FEA6C5CD6D152EA033CD3D088
:100AF0005DF8040B704700BF8446104662468C4682
:100B00001946634600E000BF01B5FFF7B7FF0028B4
:100B100048BF10F1000F01BD4DF808EDFFF7F4FFDD
:100B20000CBF012000205DF808FB00BF4DF808ED68
:100B3000FFF7EAFF34BF012000205DF808FB00BF8B
:100B40004DF808EDFFF7E0FF94BF012000205DF8AD
:100B500008FB00BF4DF808EDFFF7CEFF94BF012062
:100B600000205DF808FB00BF4DF808EDFFF7C4FF5B
:100B700034BF012000205DF808FB00BF4FEA410CA4
:100B80007FEA6C5C02D150EA013C0AD14FEA430C87
:100B90007FEA6C5C02D152EA033C02D14FF00000C4
:100BA00070474FF0010070474FEA410212F5001202
:100BB00015D211D56FF47873B3EB625212D94FEAA4
:100BC000C12343F0004343EA505311F0004F23FA8E
:100BD00002F018BF404270474FF00000704750EAE3
:100BE000013005D111F0004008BF6FF000407047A0
:100BF0004FF00000704700BF4A0011D212F50012FA
:100C000011D20DD56FF47873B3EB62520ED44FEA64
:100C1000C12343F0004343EA505323FA02F07047E4
:100C20004FF00000704750EA013002D14FF0FF3022
:100C300070474FF0000070474FEA4102B2F1E043C5
:100C400024BFB3F5001CDCF1FE5C0DD901F0004CB3
:100C50004FEAC0024CEA5070B2F1004F40EB830003
:100C600008BF20F00100704711F0804F21D113F12F
:100C70003872BCBF01F00040704741F480114FEA68
:100C80005252C2F11802C2F1200C10FA0CF320FAF1
:100C900002F018BF40F001004FEAC1234FEAD3230E
:100CA00003FA0CFC40EA0C0023FA02F34FEA430378
:100CB000CCE77FEA625307D150EA01331EBF4FF001
:100CC000FE4040F44000704701F0004040F0FE401C
:100CD00040F40000704700BF53B94AB9002908BF6B
:100CE00000281CBF4FF0FF314FF0FF3000F0BEB9BD
:100CF000ADF1080C6DE904CE00F03CF8DDF804E03D
:100D0000DDE9022304B0704738B500220023044611
:100D10000D46FFF70BFF28B920462946BDE83840AD
:100D200000F00AB8204605F1004100F005F8404205
:100D300061EB410138BD00BFD0B50C4B0022064627
:100D40000F46FFF781FCFFF757FF0446FFF702FC51
:100D5000074B0022FFF778FC02460B463046394627
:100D6000FFF7BAFAFFF748FF2146D0BD0000F03D7B
:100D70000000F0412DE9F047089D0F4604468C46DF
:100D8000002B48D18A42164661D9B2FA82F34BB1A0
:100D9000C3F1200201FA03FC20FA02F29E4042EA6B
:100DA0000C0C9C404FEA164EB7B2BCFBFEF1220C75
:100DB0000EFB11CC42EA0C4201FB07F0904209D92C
:100DC000B21801F1FF3C80F0EE80904240F2EB80DF
:100DD00002393244121AA4B2B2FBFEF00EFB10220A
:100DE00044EA024400FB07F7A74209D9341900F18D
:100DF000FF3280F0DA80A74240F2D78034440238D4
:100E000040EA0140E41B00211DB1DC400023C5E99C
:100E10000043BDE8F0878B4206D90DB1C5E900015A
:100E200000210846BDE8F087B3FA83F1002948D1D4
:100E3000BB4202D3824200F20781841A67EB0302AD
:100E400001209446002DE4D0C5E9004CE1E7002ADA
:100E500000F09280B2FA82F3002B40F0A8808A1A48
:100E60004FEA164E1FFA86FC0121200CB2FBFEF75A
:100E70000EFB172240EA02420CFB07F0904207D912
:100E8000B21807F1FF3802D2904200F2E2804746E2
:100E9000121AA4B2B2FBFEF00EFB102244EA024486
:100EA0000CFB00FCA44507D9341900F1FF3202D233
:100EB000A44500F2CB801046A4EB0C0440EA0740A6
:100EC000A2E7C1F120068B4022FA06FC4CEA030C93
:100ED00007FA01F420FA06F3F7404FEA1C492343CE
:100EE00000FA01F81FFA8CFEB7FBF9F01C0C09FBA5
:100EF000107744EA074400FB0EF7A74202FA01F21A
:100F00000AD91CEB040400F1FF3A80F09B80A74251
:100F100040F2988002386444E41B9FB2B4FBF9F3BA
:100F200009FB134447EA044403FB0EFEA64509D916
:100F30001CEB040403F1FF3780F08280A6457FD9C3
:100F4000023B644443EA0040A4EB0E04A0FB02E72A
:100F5000BC427346B94663D360D05DB1B8EB0302BF
:100F600064EB090404FA06F622FA01F31E43CC40AE
:100F7000C5E9006400214CE76208480842EAC171F3
:100F80000B0C43EA00438AB242EA0342B3FBF6F198
:100F9000E407B4463746B6461F23B0FBF6F0D21B33
:100FA00041EA004161E7614614E7104628E7C3F1D2
:100FB000200120FA01F29E4027FA01F19F403A43B6
:100FC0004FEA164E1FFA86FCB1FBFEF70EFB171018
:100FD000110C41EA004107FB0CF8884504FA03F4C0
:100FE0003AD9711807F1FF3001D288451FD8A1EB1B
:100FF0000801B1FBFEF808FB0CF70EFB181192B2CA
:1010000042EA0142BA422FD2B21808F1FF31C6D2E9
:10101000BA42C4D2A8F102013244C0E7F0459CD2E2
:10102000BEEB020367EB0C070138B94695E7A6EB68
:1010300008084144B81EB1FBFEF808FB0CF7DCE7DA
:101040003B467FE7504667E70846FBE634440238F4
:1010500032E7023F32441BE7A1EB08013846B1FBFF
:10106000FEF808FB0CF7C8E7414698E7704700BF59
:1010700080B582B000AF78607B689FED102ADFED0D
:10108000101A9FED0F1ADFED0E0AB1EE000A184696
:1010900001F045FC7B681C339FED082ADFED081A40
:1010A0009FED071ADFED060AB1EE000A184601F0BF
:1010B00036FC00BF0837BD4680BD00BF0000964328
:1010C0000000000080B588B000AFF86187ED060A27
:1010D000C7ED050A87ED041AC7ED031A87ED022A4A
:1010E00079603A60FB6997ED021AD7ED040A97ED33
:1010F000060A184601F03EFCF0EE407A7B68C3ED2C
:10110000007AFB691C3397ED021AD7ED030A97EDBD
:10111000050A184601F02EFCF0EE407A3B68C3ED5C
:10112000007A00BF2037BD4680BD80B500AF0022E9
:1011300010214FF0904002F0C7FD00BF80BD80B588
:1011400000AF012210214FF0904002F0BDFD00BF22
:1011500080BD000080B584B000AF03463960FB71EC
:101160003B68002B01D1012327E0FB7963F07F036B
:10117000DBB2BB73FFF7D9FF07F10E016423012235
:10118000104805F00EFD0346FB73FB7B002B07D1D7
:101190006423012239680B4805F079FE0346FB738E
:1011A000FFF7CDFFFB7B032B01D1022305E0FB7B87
:1011B000002B01D0012300E0002318461037BD4664
:1011C00080BD00BF6804002080B584B000AF034636
:1011D0000A46FB711346BB71FB7903F07F03DBB258
:1011E0003B73BB797B73FFF7A0FF07F10C0164230E
:1011F00002220B4805F0D5FC0346FB73FFF79FFF67
:10120000FB7B032B01D1022305E0FB7B002B01D0EC
:10121000012300E0002318461037BD4680BD00BF03
:101220006804002080B584B000AF03463960FB71CC
:101230001346BB803B68002B02D0BB88002B01D13A
:10124000012327E0FB7963F07F03DBB2BB73FFF779
:101250006CFF07F10E0164230122104805F0A1FC88
:101260000346FB73FB7B002B07D1BA8864233968E4
:101270000A4805F00CFE0346FB73FFF760FFFB7B9B
:10128000032B01D1022305E0FB7B002B01D00123BE
:1012900000E0002318461037BD4680BD68040020DA
:1012A00080B483B000AF03460A46FB711346BB719E
:1012B000FB791BB21B021AB2BB791BB213431BB2E0
:1012C00018460C37BD465DF8047B704780B584B086
:1012D00000AF78607B68002B01D101235BE0102216
:1012E000002178680EF03CFCFFF729FF0A2002F08D
:1012F00069F90023BB7307F10E0319467520FFF748
:1013000029FF0346FB73FB7B002B01D0FB7B42E0F4
:10131000BB7B672B01D003233DE005212020FFF795
:1013200053FF0346FB73FB7B002B01D0FB7B32E0BA
:1013300025212120FFF748FF0346FB73FB7B002B91
:1013400001D0FB7B27E004212320FFF73DFF03466C
:10135000FB73FB7B002B01D0FB7B1CE004212420D2
:10136000FFF732FF0346FB73FB7B002B01D0FB7BB7
:1013700011E00F211F20FFF727FF0346FB73FB7BC4
:10138000002B01D0FB7B06E0322002F01BF97B68CA
:1013900001221A73002318461037BD4680BD80B560
:1013A00086B000AF78607B68002B01D1012354E048
:1013B00007F108030E2219460920FFF733FF034601
:1013C000FB75FB7D002B01D0FB7D46E03B7A7A7AF2
:1013D00011461846FFF764FF03461A467B689A8158
:1013E000BB7AFA7A11461846FFF75AFF03461A46A7
:1013F0007B681A803B7B7A7B11461846FFF750FFCB
:1014000003461A467B685A80BB7BFA7B1146184616
:10141000FFF746FF03461A467B689A803B7C7A7C3E
:1014200011461846FFF73CFF03461A467B68DA80F0
:10143000BB7CFA7C11461846FFF732FF03461A467A
:101440007B681A813B7D7A7D11461846FFF728FF9D
:1014500003461A467B685A81002318461837BD4652
:1014600080BD000080B584B000AF78607B68002B41
:1014700001D1012370E07868FFF791FF0346FB7309
:10148000FB7B002B01D0FB7B66E07B68B3F900306F
:1014900007EE903AB8EEE77ADFED316AC7EE267ACA
:1014A0007B68C3ED047A7B68B3F9023007EE903AAB
:1014B000B8EEE77ADFED2A6AC7EE267A7B68C3EDDD
:1014C000057A7B68B3F9043007EE903AB8EEE77A14
:1014D000DFED236AC7EE267A7B68C3ED067A7B6868
:1014E000B3F9063007EE903AB8EEE77ADFED1D6A01
:1014F000C7EE267A7B68C3ED077A7B68B3F90830BC
:1015000007EE903AB8EEE77ADFED166AC7EE267A74
:101510007B68C3ED087A7B68B3F90A3007EE903A2E
:10152000B8EEE77ADFED0F6AC7EE267A7B68C3ED87
:10153000097A7B68B3F90C3007EE903AB8EEE77A97
:10154000DFED096AC7EE267AB3EE097A77EE877A7D
:101550007B68C3ED0A7A002318461037BD4680BD6C
:101560000000804533338341E17A044380B483B083
:1015700000AF786039607B68002B24D03B68002B7B
:1015800021D03B6893ED077A7B68D3ED007A77EE44
:10159000677A3B68C3ED077A3B6893ED087A7B680E
:1015A000D3ED017A77EE677A3B68C3ED087A3B6842
:1015B00093ED097A7B68D3ED027A77EE677A3B6820
:1015C000C3ED097A00E000BF0C37BD465DF8047B2F
:1015D000704780B592B000AF78600B467B801346B1
:1015E0003B807B68002B02D07B88002B01D101233C
:1015F00065E04FF000037B644FF000033B644FF065
:101600000003FB6300237B8730E007F10C031846DF
:10161000FFF728FF034687F8393097F83930002B59
:1016200002D097F839304AE0D7ED0A7A97ED117A6F
:1016300077EE277AC7ED117AD7ED0B7A97ED107A0E
:1016400077EE277AC7ED107AD7ED0C7A97ED0F7AFF
:1016500077EE277AC7ED0F7A3B88002B03D03B88C3
:10166000184601F0AFFF7B8F01337B877A8F7B8831
:101670009A42CAD37B8807EE903AB8EE677AD7EDE4
:10168000116AC6EE877A7B68C3ED007A7B8807EE25
:10169000903AB8EE677AD7ED106AC6EE877A7B6823
:1016A000C3ED017A7B8807EE903AB8EE677AD7ED02
:1016B0000F6AC6EE877A7B68C3ED027A002318466C
:1016C0004837BD4680BD80B582B000AF87ED010AC6
:1016D00097ED010A11F054F8F0EE407AB7EE007A77
:1016E000C7EE276AF0EE667AB0EE670A0837BD46A5
:1016F00080BD000080B483B000AF78607B684FF09D
:101700007E521A607B684FF000025A607B684FF08F
:1017100000029A607B684FF00002DA607B684FF04D
:1017200081421A617B680A4A5A617B684FF0000265
:101730009A617B684FF00002DA617B684FF000022B
:101740001A6200BF0C37BD465DF8047B704700BFCE
:10175000CDCC4C3D80B592B000AFF86187ED060A64
:10176000C7ED050A87ED041AC7ED031A87ED022AB3
:10177000C7ED012A87ED003AD7ED037AF5EE407AFE
:10178000F1EE10FA0ED1D7ED027AF5EE407AF1EED5
:1017900010FA07D1D7ED017AF5EE407AF1EE10FAA2
:1017A00000F01981D7ED037A27EEA77AD7ED027AF8
:1017B00067EEA77A37EE277AD7ED017A67EEA77A38
:1017C00077EE277AB0EE670AFFF77DFF87ED110A03
:1017D00097ED037AD7ED117A67EE277AC7ED037A92
:1017E00097ED027AD7ED117A67EE277AC7ED027A84
:1017F00097ED017AD7ED117A67EE277AC7ED017A76
:10180000FB6993ED017AFB69D3ED037A27EE277A22
:10181000FB69D3ED006AFB69D3ED027A66EEA77A25
:1018200077EE677AC7ED107AFB6993ED007AFB6972
:10183000D3ED017A27EE277AFB69D3ED026AFB69C3
:10184000D3ED037A66EEA77A77EE277AC7ED0F7AA3
:10185000FB6993ED007AFB69D3ED007A67EE277A96
:10186000B6EE007A37EEC77AFB69D3ED036AFB69FF
:10187000D3ED037A66EEA77A77EE277AC7ED0E7A74
:1018800097ED027AD7ED0E7A27EE277AD7ED016A27
:10189000D7ED0F7A66EEA77A77EE677AC7ED0D7A05
:1018A00097ED017AD7ED107A27EE277AD7ED036A04
:1018B000D7ED0E7A66EEA77A77EE677AC7ED0C7AE7
:1018C00097ED037AD7ED0F7A27EE277AD7ED026AE4
:1018D000D7ED107A66EEA77A77EE677AC7ED0B7AC6
:1018E000FB6993ED067AFB69D3ED056AD7ED0D7AB6
:1018F00066EEA76AD7ED007A66EEA77A77EE277ACA
:10190000FB69C3ED067AFB6993ED077AFB69D3EDBA
:10191000056AD7ED0C7A66EEA76AD7ED007A66EE17
:10192000A77A77EE277AFB69C3ED077AFB6993ED17
:10193000087AFB69D3ED056AD7ED0B7A66EEA76AE4
:10194000D7ED007A66EEA77A77EE277AFB69C3EDCA
:10195000087AFB69D3ED067A97ED067A77EE277A57
:10196000C7ED067AFB69D3ED077A97ED057A77EE36
:10197000277AC7ED057AFB69D3ED087A97ED047AEB
:1019800077EE277AC7ED047AFB6993ED047AD7EDF9
:101990000D7A67EE277A97ED067A77EE277AC7ED0C
:1019A000067AFB6993ED047AD7ED0C7A67EE277A15
:1019B00097ED057A77EE277AC7ED057AFB6993ED07
:1019C000047AD7ED0B7A67EE277A97ED047A77EEF3
:1019D000277AC7ED047AD7ED007AB6EE007A67EE83
:1019E000877A9FED847A67EE877A97ED067A67EEBD
:1019F000277AC7ED067AD7ED007AB6EE007A67EE61
:101A0000877A9FED7C7A67EE877A97ED057A67EEA5
:101A1000277AC7ED057AD7ED007AB6EE007A67EE41
:101A2000877A9FED747A67EE877A97ED047A67EE8E
:101A3000277AC7ED047AFB691B68BB62FB695B68A8
:101A40007B62FB699B683B62FB6993ED007AD7ED93
:101A5000097AF1EE676AD7ED067A66EEA76A97ED26
:101A6000086AD7ED057A66EE277A76EEE76AFB69B3
:101A700093ED036AD7ED047A66EE277A76EEE77A7D
:101A800077EE277AFB69C3ED007AFB6993ED017A63
:101A9000D7ED0A6AD7ED067A66EEA76A97ED086A6F
:101AA000D7ED047A66EE277A76EEA76AFB6993EDA6
:101AB000036AD7ED057A66EE277A76EEE77A77EE57
:101AC000277AFB69C3ED017AFB6993ED027AD7EDC2
:101AD0000A6AD7ED057A66EEA76A97ED096AD7ED2F
:101AE000047A66EE277A76EEE76AFB6993ED036A7D
:101AF000D7ED067A66EE277A76EEA77A77EE277A22
:101B0000FB69C3ED027AFB6993ED037AD7ED0A6AAC
:101B1000D7ED047A66EEA76A97ED096AD7ED057AE4
:101B200066EE277A76EEA76A97ED086AD7ED067A11
:101B300066EE277A76EEE77A77EE277AFB69C3EDD1
:101B4000037AFB6993ED007AFB69D3ED007A27EE07
:101B5000277AFB69D3ED016AFB69D3ED017A66EE62
:101B6000A77A37EE277AFB69D3ED026AFB69D3EDDA
:101B7000027A66EEA77A37EE277AFB69D3ED036A1D
:101B8000FB69D3ED037A66EEA77A77EE277AB0EE9B
:101B9000670AFFF798FD87ED110AFB6993ED007A5C
:101BA000D7ED117A67EE277AFB69C3ED007AFB69FE
:101BB00093ED017AD7ED117A67EE277AFB69C3EDD1
:101BC000017AFB6993ED027AD7ED117A67EE277AF5
:101BD000FB69C3ED027AFB6993ED037AD7ED117AC5
:101BE00067EE277AFB69C3ED037A00BF4837BD462D
:101BF00080BD00BF39FA8E3C80B584B000AFF8607C
:101C0000B9607A603B60FB6893ED007AFB68D3EDC6
:101C1000017A27EE277AFB68D3ED026AFB68D3EDE1
:101C2000037A66EEA77A77EE277A37EEA76AFB6823
:101C300093ED017AFB68D3ED017A27EE277AFB68F2
:101C4000D3ED026AFB68D3ED027A66EEA77A77EEEF
:101C5000277A77EEA77AB7EE007A77EE677AF0EE1A
:101C6000670AB0EE460A10F089FDF0EE407A9FED6B
:101C7000337A67EE877ABB68C3ED007AFB6893ED31
:101C8000007AFB68D3ED027A27EE277AFB68D3ED62
:101C9000036AFB68D3ED017A66EEA77A77EE677A7E
:101CA00077EEA77AB0EE670A10F03CFDF0EE407ACE
:101CB0009FED227A67EE877A7B68C3ED007AFB6836
:101CC00093ED007AFB68D3ED037A27EE277AFB6861
:101CD000D3ED016AFB68D3ED027A66EEA77A77EE60
:101CE000277A37EEA76AFB6893ED027AFB68D3ED9B
:101CF000027A27EE277AFB68D3ED036AFB68D3EDFF
:101D0000037A66EEA77A77EE277A77EEA77AB7EEB0
:101D1000007A77EE677AF0EE670AB0EE460A10F0C6
:101D20002DFDF0EE407A9FED057A67EE877A3B68ED
:101D3000C3ED007A00BF1037BD4680BDE12E65427D
:101D400080B582B000AF01F0CCFB00F04BF900F0A1
:101D500091FC00F095F900F0D3F900F0A7FB00F03A
:101D6000F1FB00F03BFC00F04BFA00F087FA00F0CA
:101D7000C3FA00F005FA00F0FDFA0BF079FC00213F
:101D8000814805F04FFE04217F4805F04BFE0821F5
:101D90007D4805F047FE0C217B4805F043FE7A4B59
:101DA0001B684FF47A725A63774B1B684FF47A7250
:101DB0009A63754B1B684FF47A72DA63724B1B6837
:101DC0004FF47A721A644FF47A7001F0FBFB6E4B99
:101DD0001B6840F214525A636B4B1B6840F2DC5292
:101DE0009A63694B1B684FF4E162DA63664B1B68C8
:101DF0004FF4FA621A646548FFF768FA0346002B4D
:101E00000ED0634963480DF045FE6248FEF758FA6C
:101E100003469AB24FF0FF335E495F4806F008FF71
:101E200002224FF4FA715948FFF7D3FB5B48FFF7E2
:101E300061FC5B48FFF71CF95A4800F019FE01F0FD
:101E4000B5FB7860584B1B687A68D31A07EE903A56
:101E5000F8EE677A9FED557A67EE877AC7ED007ADC
:101E6000D7ED007A9FED527AF4EEC77AF1EE10FAD0
:101E700000F186804C4A7B6813604E48FFF7F2FA07
:101E80000346002B7ED14B494048FFF76FFB494B7F
:101E9000D3ED077A474B93ED087A464BD3ED096AA9
:101EA000444B93ED046A434BD3ED055A414B93EDFC
:101EB000065A97ED003AF0EE452AB0EE652AF0EEAC
:101EC000461AB0EE661AF0EE470AB0EE670A3348DB
:101ED000FFF740FC384B394A39493048FFF78CFE50
:101EE000374BD3ED007A354B93ED007A354A3649BE
:101EF00097ED002AF0EE471AB0EE671ADFED330ACD
:101F00009FED320A2648FFF7DDF82F4BD3ED007A1C
:101F10002C4B93ED007A274BD3ED076A254B93EDBD
:101F2000086A244BD3ED095A294B2A4A2A4997EDCE
:101F3000003AF0EE652AB0EE462AF0EE661A9FED02
:101F4000231AF0EE470AB0EE670A164800F0D2FDF9
:101F5000224BD3ED007A204B93ED007A1D4BD3ED4D
:101F6000006A1B4B93ED006A1D48F0EE461AB0EE76
:101F7000661AF0EE470AB0EE670A00F037FC5EE73B
:101F800000BF5CE700BF5AE7940500209C070020D3
:101F9000D82C0108B0080020E0050020D807002058
:101FA000FC07002034080020300900206F12833A1B
:101FB0006F12033BAC070020980800209408002013
:101FC00090080020A00800209C08002000000000CD
:101FD000AC080020A8080020A40800200000002071
:101FE0008808002080B594B000AF07F118033822AC
:101FF000002118460DF0B4FD3B1D00221A605A6006
:102000009A60DA601A614FF4007003F0EFFC22234B
:10201000BB614FF480737B624023BB6201233B634F
:1020200002237B630223BB630123FB6312233B6414
:1020300002237B640623BB640223FB6407F11803BD
:10204000184603F087FD0346002B01D000F098FBF3
:102050000F237B600323BB600023FB6000233B61F5
:1020600000237B613B1D0421184604F085F80346DC
:10207000002B01D000F084FB00BF5037BD4680BD6F
:1020800080B500AF1B4B1C4A1A601A4B1B4A5A60A2
:10209000184B00229A60174B0122DA60154B002280
:1020A0001A61144B00225A61124B00229A61114BA3
:1020B0000022DA610F4B00221A620E4801F01CFE6A
:1020C0000346002B01D000F05BFB0021094801F022
:1020D000AEFE0346002B01D000F052FB0021054864
:1020E00001F0F0FE0346002B01D000F049FB00BFD9
:1020F00080BD00BF6C03002000540040755071602B
:1021000080B500AF1B4B1C4A1A601A4B1B4A5A6021
:10211000184B00229A60174B0122DA60154B0022FF
:102120001A61144B00225A61124B00229A61114B22
:102130000022DA610F4B00221A620E4801F0DCFD2A
:102140000346002B01D000F01BFB0021094801F0E1
:102150006EFE0346002B01D000F012FB0021054863
:1021600001F0B0FE0346002B01D000F009FB00BFD8
:1021700080BD00BFC0030020005800407550716052
:1021800080B500AF1B4B1C4A1A601A4B1B4A5A60A1
:10219000184B00229A60174B0122DA60154B00227F
:1021A0001A61144B00225A61124B00229A61114BA2
:1021B0000022DA610F4B00221A620E4801F09CFDEA
:1021C0000346002B01D000F0DBFA0021094801F0A2
:1021D0002EFE0346002B01D000F0D2FA0021054864
:1021E00001F070FE0346002B01D000F0C9FA00BFD9
:1021F00080BD00BF1404002000780040755071605D
:1022000080B500AF1B4B1C4A1A601A4B4FF4827208
:102210005A60184B00229A60164B4FF4E062DA6065
:10222000144B00221A61134B00225A61114B4FF4D8
:1022300000729A610F4B1822DA610E4B00221A626B
:102240000C4B00225A620B4B00229A62094B072268
:10225000DA62084B00221A63064B08225A630548CB
:1022600004F0F4FB0346002B01D000F089FA00BF14
:1022700080BD00BF680400200030014080B500AF81
:102280001B4B1C4A1A601A4B4FF482725A60184B4F
:1022900000229A60164B4FF44072DA60144B002211
:1022A0001A61134B00225A61114B4FF400729A616C
:1022B0000F4B1822DA610E4B00221A620C4B0022DF
:1022C0005A620B4B00229A62094B0722DA62084BD2
:1022D00000221A63064B08225A63054804F0B6FB35
:1022E0000346002B01D000F04BFA00BF80BD00BFB9
:1022F000CC0400200038004080B500AF1B4B1C4AC6
:102300001A601A4B4FF482725A60184B00229A607E
:10231000164B4FF44072DA60144B00221A61134BD3
:1023200000225A61114B4FF400729A610F4B182230
:10233000DA610E4B00221A620C4B00225A620B4BE0
:1023400000229A62094B0722DA62084B00221A63C4
:10235000064B08225A63054804F078FB0346002B1D
:1023600001D000F00DFA00BF80BD00BF3005002095
:10237000003C004080B58EB000AF07F1280300227A
:102380001A605A609A60DA6007F11C0300221A6032
:102390005A609A603B4600221A605A609A60DA607E
:1023A0001A615A619A613F4B3F4A1A603D4B8F2236
:1023B0005A603C4B00229A603A4B44F61F62DA6046
:1023C000384B00221A61374B00229A61354805F0DC
:1023D00071FA0346002B01D000F0D2F94FF480537C
:1023E000BB6207F1280319462E4805F041FD03465C
:1023F000002B01D000F0C4F92A4805F0B2FA0346D8
:10240000002B01D000F0BCF90023FB6100237B62AC
:1024100007F11C031946234806F024FB0346002B52
:1024200001D000F0ADF960233B604FF47A737B601C
:102430000023BB6000233B613B460022194619483C
:1024400005F002FC0346002B01D000F099F93B4651
:1024500004221946134805F0F7FB0346002B01D070
:1024600000F08EF93B46082219460E4805F0ECFBB9
:102470000346002B01D000F083F900237B603B462C
:102480000C221946074805F0DFFB0346002B01D05C
:1024900000F076F9034800F087FD00BF3837BD46ED
:1024A00080BD00BF94050020000C004080B500AF47
:1024B000224B234A1A60214B4FF416425A601F4B9D
:1024C00000229A601D4B0022DA601C4B00221A6128
:1024D0001A4B0C225A61194B00229A61174B0022A9
:1024E000DA61164B00221A62144B00225A62134B17
:1024F00000229A62114806F04BFB0346002B01D0E4
:1025000000F03EF900210D4807F039FD0346002B8D
:1025100001D000F035F90021084807F06EFD0346B0
:10252000002B01D000F02CF9044807F0EFFC034623
:10253000002B01D000F024F900BF80BDE005002091
:102540000038014080B500AF224B234A1A60214B6E
:102550004FF416525A601F4B00229A601D4B002206
:10256000DA601C4B00221A611A4B0C225A61194B7B
:1025700000229A61174B0022DA61164B00221A6280
:10258000144B00225A62134B00229A62114806F043
:10259000FFFA0346002B01D000F0F2F800210D48AD
:1025A00007F0EDFC0346002B01D000F0E9F8002114
:1025B000084807F022FD0346002B01D000F0E0F8A8
:1025C000044807F0A3FC0346002B01D000F0D8F824
:1025D00000BF80BD740600200044004080B500AFFD
:1025E000224B234A1A60214B4FF4E1325A601F4BB1
:1025F00000229A601D4B0022DA601C4B00221A61F7
:102600001A4B0C225A61194B00229A61174B002277
:10261000DA61164B00221A62144B00225A62134BE5
:1026200000229A62114806F0B3FA0346002B01D04B
:1026300000F0A6F800210D4807F0A1FC0346002B8E
:1026400001D000F09DF80021084807F0D6FC0346B1
:10265000002B01D000F094F8044807F057FC034623
:10266000002B01D000F08CF800BF80BD08070020CF
:102670000048004080B58CB000AF07F11C03002279
:102680001A605A609A60DA601A613B4BDB6C3A4A16
:1026900043F00403D364384BDB6C03F00403BB61E9
:1026A000BB69354BDB6C344A43F02003D364324BB7
:1026B000DB6C03F020037B617B692F4BDB6C2E4AC4
:1026C00043F00103D3642C4BDB6C03F001033B614B
:1026D0003B69294BDB6C284A43F01003D364264B3B
:1026E000DB6C03F01003FB60FB68234BDB6C224ABE
:1026F00043F00203D364204BDB6C03F00203BB60A6
:10270000BB681D4BDB6C1C4A43F00803D3641A4BB7
:10271000DB6C03F008037B607B68002210214FF024
:10272000904001F0D1FA00224FF48051134801F09B
:10273000CBFA1023FB6101233B6200237B62002361
:10274000BB6207F11C0319464FF0904001F030F9CD
:102750004FF48053FB6101233B6200237B62002323
:10276000BB6207F11C031946044801F021F900BFC0
:102770003037BD4680BD00BF001002400004004855
:1027800080B400AF72B600BF00BFFDE780B483B075
:1027900000AF87ED010AD7ED017A9FED107AF4EED4
:1027A000C77AF1EE10FA01D50D4B7B60D7ED017AB7
:1027B0009FED0C7AF4EEC77AF1EE10FA01DD0A4BC8
:1027C0007B60D7ED017AFCEEE77A17EE903A9BB288
:1027D00018460C37BD465DF8047B704700007A440C
:1027E00000007A440000FA440000FA4480B58AB040
:1027F00000AF87ED050AC7ED040A87ED031AC7EDA0
:10280000021A786097ED057AD7ED047A37EE677A89
:10281000D7ED037A37EE277AD7ED027A77EE677A2B
:10282000C7ED097A97ED057AD7ED047A37EE277A66
:10283000D7ED037A77EE677A97ED027A77EE277A0B
:10284000C7ED087A97ED057AD7ED047A37EE677A07
:10285000D7ED037A77EE677A97ED027A77EE277AEB
:10286000C7ED077A97ED057AD7ED047A37EE277A28
:10287000D7ED037A37EE277AD7ED027A77EE677ACB
:10288000C7ED067A97ED090AFFF780FF03461A465F
:102890007B681A8097ED080AFFF778FF03461A460F
:1028A0007B685A8097ED070AFFF770FF03461A46C8
:1028B0007B689A8097ED060AFFF768FF03461A4681
:1028C0007B68DA8000BF2837BD4680BD80B485B004
:1028D00000AF87ED030AC7ED020A87ED011A97EDF5
:1028E000037AD7ED017AB4EEE77AF1EE10FA01DD62
:1028F0007B680BE097ED037AD7ED027AB4EEE77AC6
:10290000F1EE10FA01D5BB6800E0FB6807EE903AE3
:10291000B0EE670A1437BD465DF8047B704780B49B
:1029200087B000AF786187ED040AC7ED030A87ED31
:10293000021AC7ED011A87ED002A7B693A691A600D
:102940007B69FA685A607B69BA689A607B694FF064
:102950000002DA607B694FF000021A617B697A68D5
:102960005A617B693A689A6100BF1C37BD465DF8C1
:10297000047B704780B588B000AFF86087ED020A2D
:10298000C7ED010A87ED001A97ED027AD7ED017ABB
:1029900077EE677AC7ED077AFB6893ED037AD7ED98
:1029A000076AD7ED007A66EEA77A77EE277AFB689A
:1029B000C3ED037AFB6893ED037AFB68D3ED057AE8
:1029C000F1EE677AFB68D3ED056AB0EE661AF0EEB9
:1029D000670AB0EE470AFFF779FFF0EE407AFB682E
:1029E000C3ED037AFB68D3ED047A97ED077A77EEAF
:1029F000676A97ED007AC6EE877AC7ED067AFB68BC
:102A0000FA691A61FB6893ED007AD7ED077A27EE31
:102A1000277AFB68D3ED016AFB68D3ED037A66EE93
:102A2000A77A37EE277AFB68D3ED026AD7ED067AEC
:102A300066EEA77A77EE277AC7ED057AFB68D3EDC5
:102A4000067AF1EE677AFB6893ED067AB0EE471AE4
:102A5000F0EE670A97ED050AFFF738FF87ED050AE4
:102A60007B6907EE903AB0EE670A2037BD4680BD1D
:102A700080B582B000AF78607B689FED172ADFEDEC
:102A8000171A9FED171ADFED170A9FED170A184660
:102A9000FFF745FF7B681C339FED0F2ADFED0F1A10
:102AA0009FED0F1ADFED0F0A9FED0F0A1846FFF793
:102AB00036FF7B6838339FED082ADFED081A9FED5B
:102AC0000B1ADFED0B0AB5EE000A1846FFF727FFD9
:102AD00000BF0837BD4680BD0000FA430000C84271
:102AE0006F12833B0AD7A33DEC51383E0000000033
:102AF000CDCCCC3D80B58CB000AFF86287ED0A0A32
:102B0000C7ED090A87ED081AC7ED071A87ED062AEF
:102B1000C7ED052A87ED043AF960BA607B60FB6A6D
:102B200097ED041AD7ED070A97ED0A0A1846FFF742
:102B300021FFF0EE407AFB68C3ED007AFB6A1C339C
:102B400097ED041AD7ED060A97ED090A1846FFF724
:102B500011FFF0EE407ABB68C3ED007AFB6A3833B0
:102B600097ED041AD7ED050A97ED080A1846FFF706
:102B700001FFF0EE407A7B68C3ED007A00BF30378A
:102B8000BD4680BD80B582B000AF0F4B1B6E0E4AB4
:102B900043F0010313660C4B1B6E03F001037B60D3
:102BA0007B68094B9B6D084A43F080539365064B45
:102BB0009B6D03F080533B603B6802F0BBFF00BF9E
:102BC0000837BD4680BD00BF0010024080B5A4B0EC
:102BD00000AF786007F17C0300221A605A609A60A7
:102BE000DA601A6107F128035422002118460CF01C
:102BF000B7FF7B681B68834A93425CD14023BB626A
:102C000000237B6407F12803184603F0D1FC034638
:102C1000002B01D0FFF7B4FD7B4BDB6C7A4A43F00D
:102C20000103D364784BDB6C03F001037B627B6AA6
:102C3000754BDB6C744A43F00203D364724BDB6C5C
:102C400003F002033B623B6A4FF40043FB6712232D
:102C5000C7F880300023C7F884300023C7F88830D5
:102C60000423C7F88C3007F17C0319464FF09040DD
:102C700000F09EFE8023FB671223C7F880300023FC
:102C8000C7F884300023C7F888300423C7F88C3095
:102C900007F17C0319465D4800F08AFE5A4B9B6D94
:102CA000594A43F400139365574B9B6D03F400138B
:102CB000FB61FB69A2E07B681B68554A93425CD1CB
:102CC0008023BB620023BB6407F12803184603F08E
:102CD0006FFC0346002B01D0FFF752FD4A4BDB6C23
:102CE000494A43F00403D364474BDB6C03F004030D
:102CF000BB61BB69444BDB6C434A43F00103D364C3
:102D0000414BDB6C03F001037B617B691023FB67A4
:102D10001223C7F880300023C7F884300023C7F897
:102D200088300423C7F88C3007F17C0319463948F2
:102D300000F03EFE4FF48073FB671223C7F880302B
:102D40000023C7F884300023C7F888300423C7F86D
:102D50008C3007F17C0319464FF0904000F028FEBC
:102D6000294B9B6D284A43F480039365264B9B6D4A
:102D700003F480033B613B6940E07B681B68264AA3
:102D800093423BD14FF48073BB620023FB6407F195
:102D90002803184603F00CFC0346002B01D0FFF774
:102DA000EFFC194BDB6C184A43F00403D364164B59
:102DB000DB6C03F00403FB60FB684FF44073FB67BC
:102DC0001223C7F880300023C7F884300023C7F8E7
:102DD00088300823C7F88C3007F17C0319460D486A
:102DE00000F0E6FD084B9B6D074A43F08043936576
:102DF000054B9B6D03F08043BB60BB6800BF903701
:102E0000BD4680BD00540040001002400004004850
:102E100000580040000800480078004080B58EB09F
:102E200000AF786007F1240300221A605A609A60AC
:102E3000DA601A617B681B68464A934229D1464B87
:102E40001B6E454A43F480531366434B1B6E03F4D9
:102E500080533B623B6A404BDB6C3F4A43F00103CB
:102E6000D3643D4BDB6C03F00103FB61FB69E023A2
:102E70007B620223BB620023FB6200233B630523CA
:102E80007B6307F1240319464FF0904000F090FD5A
:102E90005BE07B681B68314A934229D12E4B9B6DC6
:102EA0002D4A43F4804393652B4B9B6D03F4804381
:102EB000BB61BB69284BDB6C274A43F00203D36438
:102EC000254BDB6C03F002037B617B694FF46043AD
:102ED0007B620223BB620023FB6200233B6305236A
:102EE0007B6307F1240319461D4800F061FD2CE0C7
:102EF0007B681B681B4A934227D1174B9B6D164A70
:102F000043F400439365144B9B6D03F400433B6112
:102F10003B69114BDB6C104A43F00203D3640E4B48
:102F2000DB6C03F00203FB60FB6838237B62022347
:102F3000BB620023FB6200233B6306237B6307F134
:102F400024031946064800F033FD00BF3837BD465C
:102F500080BD00BF0030014000100240003800403A
:102F600000040048003C004080B485B000AF7860A9
:102F70007B681B680A4A93420BD10A4B9B6D094A36
:102F800043F008039365074B9B6D03F00803FB6058
:102F9000FB6800BF1437BD465DF8047B704700BF77
:102FA000000C00400010024080B588B000AF78608F
:102FB00007F10C0300221A605A609A60DA601A6105
:102FC0007B681B68114A93421CD1114BDB6C104A81
:102FD00043F00103D3640E4BDB6C03F00103BB60D1
:102FE000BB680F23FB6002233B6100237B6100234E
:102FF000BB610223FB6107F10C0319464FF09040BF
:1030000000F0D6FC00BF2037BD4680BD000C00405C
:103010000010024080B5A4B000AF786007F17C03D7
:1030200000221A605A609A60DA601A6107F1280378
:103030005422002118460CF093FD7B681B687A4AE5
:10304000934244D10123BB620023FB6207F12803B2
:10305000184603F0ADFA0346002B01D0FFF790FBB2
:10306000724B1B6E714A43F4804313666F4B1B6EA9
:1030700003F480437B627B6A6C4BDB6C6B4A43F0EE
:103080000103D364694BDB6C03F001033B623B6AD1
:103090004FF4C063FB670223C7F880300023C7F8F2
:1030A00084300023C7F888300723C7F88C3007F135
:1030B0007C0319464FF0904000F07AFC002200217A
:1030C000252000F07CFB252000F093FBA8E07B6826
:1030D0001B68574A934242D10223BB6200233B63E1
:1030E00007F12803184603F063FA0346002B01D0CA
:1030F000FFF746FB4D4B9B6D4C4A43F40033936501
:103100004A4B9B6D03F40033FB61FB69474BDB6C5F
:10311000464A43F00803D364444BDB6C03F00803D6
:10312000BB61BB696023FB670223C7F880300023C3
:10313000C7F884300023C7F888300723C7F88C30DD
:1031400007F17C0319463B4800F032FC00220021C5
:10315000262000F034FB262000F04BFB60E07B686B
:103160001B68354A93425BD10423BB6200237B6317
:1031700007F12803184603F01BFA0346002B01D081
:10318000FFF7FEFA294B9B6D284A43F48023936591
:10319000264B9B6D03F480237B617B69234BDB6CA7
:1031A000224A43F01003D364204BDB6C03F010037E
:1031B0003B613B691D4BDB6C1C4A43F00203D3644B
:1031C0001A4BDB6C03F00203FB60FB684FF4004317
:1031D000FB670223C7F880300023C7F88430002340
:1031E000C7F888300723C7F88C3007F17C031946ED
:1031F000124800F0DDFB4FF48063FB670223C7F841
:1032000080300023C7F884300023C7F888300723B4
:10321000C7F88C3007F17C031946094800F0C8FB59
:1032200000BF9037BD4680BD00380140001002400D
:1032300000440040000C00480048004000100048D6
:103240000004004880B400AF00BFFDE780B400AFC9
:1032500000BFFDE780B400AF00BFFDE780B400AF62
:1032600000BFFDE780B400AF00BFFDE780B400AF52
:1032700000BFBD465DF8047B704780B400AF00BF5F
:10328000BD465DF8047B704780B400AF00BFBD460B
:103290005DF8047B704780B500AF00F075F900BFA2
:1032A00080BD000080B500AF024800F047FF00BFBE
:1032B00080BD00BF101E002080B500AF024805F0A1
:1032C00051FD00BF80BD00BFE005002080B500AF0C
:1032D000024805F047FD00BF80BD00BF7406002016
:1032E00080B400AF01231846BD465DF8047B7047EB
:1032F00080B582B000AF786039600CF095FC034671
:1033000016221A604FF0FF3318460837BD4680BDBD
:1033100080B582B000AF78604FF0FF317868FFF77A
:10332000E7FF00BFFDE780B586B000AFF860B96089
:103330007A6000237B610AE0AFF300800146BB683E
:103340005A1CBA60CAB21A707B6901337B617A6910
:103350007B689A42F0DB7B6818461837BD4680BD13
:1033600080B586B000AFF860B9607A6000237B61F9
:1033700009E0BB685A1CBA601B781846AFF300809E
:103380007B6901337B617A697B689A42F1DB7B68F8
:1033900018461837BD4680BD80B483B000AF786052
:1033A0004FF0FF3318460C37BD465DF8047B70477D
:1033B00080B483B000AF786039603B684FF400524E
:1033C0005A60002318460C37BD465DF8047B7047F1
:1033D00080B483B000AF7860012318460C37BD4637
:1033E0005DF8047B704780B485B000AFF860B960C9
:1033F0007A60002318461437BD465DF8047B704799
:1034000080B586B000AF7860144A154BD31A7B6143
:103410007B693B61134B1B68002B02D1114B124A95
:103420001A60104B1A687B6813443A699A4207D2B3
:103430000CF0FAFB03460C221A604FF0FF3309E050
:10344000084B1B68FB60074B1A687B681344054AEE
:103450001360FB6818461837BD4680BD0000022087
:1034600000040000340900205824002080B400AF7C
:10347000064BD3F88830054A43F47003C2F888300D
:1034800000BFBD465DF8047B704700BF00ED00E063
:103490000D488546FFF7EAFF0C480D490D4A002309
:1034A00002E0D458C4500433C4188C42F9D30A4AF9
:1034B0000A4C002301E013600432A242FBD30CF05B
:1034C000B9FBFEF73DFCFEE70000022000000020F3
:1034D00050030020E8310108500300205824002048
:1034E000FEE780B582B000AF0023FB71032000F03F
:1034F0005BF90F2000F00EF80346002B02D00123E9
:10350000FB7101E0FFF73EFBFB7918460837BD462B
:1035100080BD000080B584B000AF78600023FB73ED
:10352000164B1B68002B22D0154B1A68134B1B68D7
:103530004FF47A71B1FBF3F3B2FBF3F3184600F0EA
:1035400066F90346002B0FD17B680F2B09D80022A8
:1035500079684FF0FF3000F032F90A4A7B68136057
:1035600007E00123FB7304E00123FB7301E0012367
:10357000FB73FB7B18461037BD4680BD0C00002056
:10358000040000200800002080B400AF054B1A683A
:10359000054B1B681344034A136000BFBD465DF82A
:1035A000047B7047380900200C00002080B400AF75
:1035B000034B1B681846BD465DF8047B704700BF8F
:1035C0003809002080B584B000AF7860FFF7EEFFC7
:1035D000B8607B68FB60FB68B3F1FF3F04D0094B28
:1035E0001B68FA681344FB6000BFFFF7DFFF024669
:1035F000BB68D31AFA689A42F7D800BF00BF1037E9
:10360000BD4680BD0C00002080B485B000AF78605E
:103610007B6803F00703FB600C4BDB68BB60BA6898
:103620004FF6FF031340BB60FB681A02BB681343ED
:1036300043F0BF6343F40033BB60044ABB68D3600C
:1036400000BF1437BD465DF8047B704700ED00E015
:1036500080B400AF044BDB681B0A03F00703184675
:10366000BD465DF8047B704700ED00E080B483B098
:1036700000AF0346FB7197F90730002B0BDBFB799A
:1036800003F01F02074997F907305B09012000FA90
:1036900002F241F8232000BF0C37BD465DF8047BE1
:1036A000704700BF00E100E080B483B000AF034684
:1036B0003960FB7197F90730002B0ADB3B68DAB2FF
:1036C0000C4997F907301201D2B20B4483F800235A
:1036D0000AE03B68DAB20849FB7903F00F03043BC8
:1036E0001201D2B20B441A7600BF0C37BD465DF80A
:1036F000047B704700E100E000ED00E080B489B099
:1037000000AFF860B9607A60FB6803F00703FB6103
:10371000FB69C3F10703042B28BF0423BB61FB69CA
:103720000433062B02D9FB69033B00E000237B61D5
:103730004FF0FF32BB6902FA03F3DA43BB681A4069
:103740007B699A404FF0FF317B6901FA03F3D9435B
:103750007B680B40134318462437BD465DF8047B55
:103760007047000080B582B000AF78607B68013B95
:10377000B3F1807F01D301230FE00A4A7B68013B4C
:1037800053600F214FF0FF30FFF78EFF054B0022F3
:103790009A60044B07221A60002318460837BD467A
:1037A00080BD00BF10E000E080B582B000AF78605F
:1037B0007868FFF729FF00BF0837BD4680BD80B598
:1037C00086B000AF0346B9607A60FB73FFF740FF35
:1037D00078617A68B9687869FFF790FF024697F9CF
:1037E0000F3011461846FFF75FFF00BF1837BD4680
:1037F00080BD80B582B000AF0346FB7197F90730FA
:103800001846FFF733FF00BF0837BD4680BD80B5BF
:1038100082B000AF78607868FFF7A4FF03461846CF
:103820000837BD4680BD80B485B000AF7860002306
:10383000FB737B68002B01D101234CE07B6893F87C
:103840002530DBB2022B05D07B680422DA6301232A
:10385000FB7337E07B681B681A687B681B6822F083
:1038600001021A607B681B681A687B681B6822F07B
:103870000E021A607B689B6C1A687B689B6C22F452
:1038800080721A607B685B6C03F01F027B681B6CA4
:10389000012101FA02F25A607B68DB6C7A68126DD2
:1038A0005A607B685B6D002B0CD07B685B6D1A687F
:1038B0007B685B6D22F480721A607B689B6D7A680E
:1038C000D26D5A607B68012283F825207B68002234
:1038D00083F82420FB7B18461437BD465DF8047B33
:1038E000704780B584B000AF78600023FB737B68BD
:1038F00093F82530DBB2022B0DD07B680422DA630B
:103900007B68012283F825207B68002283F824202D
:103910000123FB7347E07B681B681A687B681B68A0
:1039200022F001021A607B681B681A687B681B68BA
:1039300022F00E021A607B689B6C1A687B689B6C95
:1039400022F480721A607B685B6C03F01F027B6854
:103950001B6C012101FA02F25A607B68DB6C7A6809
:10396000126D5A607B685B6D002B0CD07B685B6DC1
:103970001A687B685B6D22F480721A607B689B6DAD
:103980007A68D26D5A607B68012283F825207B68B3
:10399000002283F824207B689B6B002B03D07B687C
:1039A0009B6B78689847FB7B18461037BD4680BDF7
:1039B00080B487B000AF7860396000237B6164E138
:1039C0003B681A6801217B6901FA03F31340FB602D
:1039D000FB68002B00F056813B685B6803F0030333
:1039E000012B05D03B685B6803F00303022B30D149
:1039F0007B689B683B617B695B00032202FA03F3EF
:103A0000DB433A6913403B613B68DA687B695B00E2
:103A100002FA03F33A6913433B617B683A699A609F
:103A20007B685B683B6101227B6902FA03F3DB433D
:103A30003A6913403B613B685B681B0903F0010274
:103A40007B6902FA03F33A6913433B617B683A6985
:103A50005A603B685B6803F00303032B09D13B68A2
:103A60005B6803F00303032B1BD13B689B68012BAE
:103A700017D07B68DB683B617B695B00032202FA3D
:103A800003F3DB433A6913403B613B689A687B6907
:103A90005B0002FA03F33A6913433B617B683A69BE
:103AA000DA603B685B6803F00303022B23D17B6978
:103AB000DA087B68083253F822303B617B6903F0F7
:103AC00007039B000F2202FA03F3DB433A6913401A
:103AD0003B613B681A697B6903F007039B0002FAAC
:103AE00003F33A6913433B617B69DA087B68083268
:103AF000396943F822107B681B683B617B695B0076
:103B0000032202FA03F3DB433A6913403B613B684B
:103B10005B6803F003027B695B0002FA03F33A6916
:103B200013433B617B683A691A603B685B6803F446
:103B30004033002B00F0A6805B4B1B6E5A4A43F0CB
:103B400001031366584B1B6E03F00103BB60BB6897
:103B5000564A7B699B08023352F823303B617B69EC
:103B600003F003039B000F2202FA03F3DB433A69DD
:103B700013403B617B68B3F1904F1FD07B684C4A88
:103B8000934219D07B684B4A934213D07B684A4AD0
:103B900093420DD07B68494A934207D07B68484ADC
:103BA000934201D105230AE0062308E0042306E03E
:103BB000032304E0022302E0012300E000237A69EA
:103BC00002F00302920093403A6913433B61374984
:103BD0007B699B0802333A6941F82320394B9B6883
:103BE0003B61FB68DB433A6913403B613B685B68C0
:103BF00003F48013002B03D03A69FB6813433B6145
:103C0000304A3B6993602F4BDB683B61FB68DB43C9
:103C10003A6913403B613B685B6803F40013002B77
:103C200003D03A69FB6813433B61264A3B69D36082
:103C3000244B5B683B61FB68DB433A6913403B61A3
:103C40003B685B6803F40033002B03D03A69FB68E0
:103C500013433B611B4A3B6953601A4B1B683B6132
:103C6000FB68DB433A6913403B613B685B6803F4E4
:103C70008033002B03D03A69FB6813433B61114A40
:103C80003B6913607B6901337B613B681A687B6920
:103C900022FA03F3002B7FF493AE00BF00BF1C3762
:103CA000BD465DF8047B70470010024000000140F3
:103CB0000004004800080048000C004800100048BC
:103CC000001400480004014080B483B000AF786065
:103CD0000B467B8013467B707B78002B03D07A8861
:103CE0007B689A6102E07A887B689A6200BF0C3731
:103CF000BD465DF8047B704780B582B000AF786048
:103D00007B68002B01D101238DE07B6893F8413063
:103D1000DBB2002B06D17B68002283F84020786854
:103D2000FEF754FF7B68242283F841207B681B68E0
:103D30001A687B681B6822F001021A607B685A6867
:103D40007B681B6822F070621A617B681B689A6846
:103D50007B681B6822F400429A607B68DB68012B59
:103D600007D17B689A687B681B6842F400429A60BE
:103D700006E07B689A687B681B6842F404429A609C
:103D80007B68DB68022B08D17B681B685A687B68FC
:103D90001B6842F400625A6007E07B681B685A683F
:103DA0007B681B6822F400625A607B681B685B6852
:103DB0007A68126843F0007343F4004353607B68F1
:103DC0001B68DA687B681B6822F40042DA607B6853
:103DD0001A697B685B6942EA03017B689B691A0286
:103DE0007B681B680A43DA607B68D9697B681A6A5A
:103DF0007B681B680A431A607B681B681A687B68CB
:103E00001B6842F001021A607B6800225A647B68DA
:103E1000202283F841207B6800221A637B680022FD
:103E200083F84220002318460837BD4680BD80B481
:103E300083B000AF786039607B6893F84130DBB2C3
:103E4000202B38D17B6893F84030012B01D102231D
:103E500032E07B68012283F840207B68242283F8CB
:103E600041207B681B681A687B681B6822F001028E
:103E70001A607B681B681A687B681B6822F4805292
:103E80001A607B681B6819687B681B683A680A437C
:103E90001A607B681B681A687B681B6842F0010225
:103EA0001A607B68202283F841207B68002283F817
:103EB0004020002300E0022318460C37BD465DF881
:103EC000047B704780B485B000AF786039607B6850
:103ED00093F84130DBB2202B39D17B6893F8403026
:103EE000012B01D1022333E07B68012283F84020BB
:103EF0007B68242283F841207B681B681A687B68F2
:103F00001B6822F001021A607B681B681B68FB605B
:103F1000FB6823F47063FB603B681B02FA68134381
:103F2000FB607B681B68FA681A607B681B681A680C
:103F30007B681B6842F001021A607B68202283F8CC
:103F400041207B68002283F84020002300E0022308
:103F500018461437BD465DF8047B704780B584B0C1
:103F600000AF78607B68002B01D10123C0E07B6843
:103F700093F89132DBB2002B06D17B68002283F8E4
:103F80009022786809F054FD7B68032283F891221F
:103F90007B681B68184606F0D4F80023FB733EE0EC
:103FA000FA7B796813469B001344DB000B44113302
:103FB00001221A70FA7B796813469B001344DB00D8
:103FC0000B441033FA7B1A70FA7B796813469B0016
:103FD0001344DB000B44133300221A70FA7B796818
:103FE00013469B001344DB000B44203300221A606D
:103FF000FA7B796813469B001344DB000B4424339F
:1040000000221A60FB7B79685A1C13469B001344FC
:10401000DB000B4400221A60FB7B0133FB737B68DF
:104020001B79FA7B9A42BBD30023FB7344E0FA7BF3
:10403000796813469B001344DB000B4403F25113D1
:1040400000221A70FA7B796813469B001344DB0048
:104050000B4403F5A873FA7B1A70FA7B7968134650
:104060009B001344DB000B4403F2531300221A702D
:10407000FA7B796813469B001344DB000B4403F57D
:10408000B07300221A60FA7B796813469B001344D0
:10409000DB000B4403F5B27300221A60FA7B7968E7
:1040A00013469B001344DB000B4403F5B47300225A
:1040B0001A60FB7B0133FB737B681B79FA7B9A42A6
:1040C000B5D37B6818687B68043393E8060006F074
:1040D00053F87B6800221A737B68012283F89122CF
:1040E0007B689B7A012B02D1786801F055FC002394
:1040F00018461037BD4680BD80B582B000AF7860ED
:104100007B6893F89032012B01D1022312E07B6887
:10411000012283F890227B681B68184605F0FAFF9D
:104120007B681B68184607F0D7FD7B68002283F880
:104130009022002318460837BD4680BD80B584B064
:1041400000AF78607B681B68184607F0DCFDF860FC
:10415000FB6803F40043002B03D0786800F006FBF3
:1041600010E1FB6803F48063002B13D07B681B68AD
:10417000B3F844309AB27B681B6822F4806292B232
:10418000A3F84420786809F0E4FC0021786800F086
:10419000FCF8F7E0FB6803F48043002B0CD07B684D
:1041A0001B68B3F844309AB27B681B6822F48042E3
:1041B00092B2A3F84420E5E0FB6803F40053002B1F
:1041C0000CD07B681B68B3F844309AB27B681B68DC
:1041D00022F4005292B2A3F84420D3E0FB6803F427
:1041E0008053002B34D07B681B68B3F840309AB200
:1041F0007B681B6822F0040292B2A3F840207B681F
:104200001B68B3F840309AB27B681B6822F0080242
:1042100092B2A3F840207B6893F8C832012B07D1F3
:104220007B68002283F8C8220021786809F084FEA8
:10423000786809F0C7FC7B681B68B3F844309AB211
:104240007B681B6822F4805292B2A3F8442099E064
:10425000FB6803F40063002B27D07B681B68B3F86E
:1042600040309AB27B681B6842F0080292B2A3F811
:1042700040207B681B68B3F844309AB27B681B68A7
:1042800022F4006292B2A3F844207B681B68B3F862
:1042900040309AB27B681B6842F0040292B2A3F8E5
:1042A0004020786809F074FC6CE0FB6803F0800340
:1042B000002B40D07B681B68B3F844309AB27B680F
:1042C0001B6822F0800292B2A3F844207B6893F826
:1042D000C832002B2BD17B681B68B3F840309AB2F0
:1042E0007B681B6842F0040292B2A3F840207B680E
:1042F0001B68B3F840309AB27B681B6842F0080232
:1043000092B2A3F840207B68012283F8C8227B6820
:104310001B68B3F854309BB29B0803F03C027B68E7
:10432000C3F8CC220121786809F006FE2AE07868FB
:1043300009F02EFC26E0FB6803F40073002B0FD07D
:104340007B681B68B3F844309AB27B681B6822F420
:10435000007292B2A3F84420786809F0ECFB11E0F7
:10436000FB6803F48073002B0CD07B681B68B3F8E8
:1043700044309AB27B681B6822F4807292B2A3F830
:10438000442000BF1037BD4680BD80B582B000AF6D
:1043900078600B46FB707B6893F89032012B01D15B
:1043A000022312E07B68012283F890227B68FA786E
:1043B0001A737B681B68FA781146184607F078FC78
:1043C0007B68002283F89022002318460837BD46F8
:1043D00080BD80B584B000AF7860084611461A46AB
:1043E0000346FB700B463B801346BB700023FB72F9
:1043F00097F90330002B0EDAFB7803F0070213461F
:104400009B001344DB0010337A681344FB60FB68A5
:1044100001225A700EE0FB7803F0070213469B005E
:104420001344DB0003F5A8737A681344FB60FB6850
:1044300000225A70FB7803F00703DAB2FB681A70A7
:104440003B88C3F30A02FB681A61FB68BA78DA702A
:10445000BB78022B02D1FB6800221A717B6893F8AB
:104460009032012B01D102230EE07B68012283F8F8
:1044700090227B681B68F968184605F09BFE7B68F4
:10448000002283F89022FB7A18461037BD4680BD83
:1044900080B584B000AF78600B46FB7097F90330AD
:1044A000002B0EDAFB7803F0070213469B0013443F
:1044B000DB0010337A681344FB60FB6801225A70FA
:1044C0000EE0FB7803F0070213469B001344DB0069
:1044D00003F5A8737A681344FB60FB6800225A70E6
:1044E000FB7803F00703DAB2FB681A707B6893F875
:1044F0009032012B01D102230EE07B68012283F868
:1045000090227B681B68F968184606F03BFB7B68C5
:10451000002283F89022002318461037BD4680BD44
:1045200080B586B000AFF8607A603B600B46FB72E6
:10453000FB7A03F0070213469B001344DB0003F5EC
:10454000A873FA6813447B617B697A685A617B6956
:104550003A689A617B690022DA617B6900225A70AD
:10456000FB7A03F00703DAB27B691A70FB681B68F9
:104570007969184606F0F3FC002318461837BD4643
:1045800080BD80B483B000AF78600B46FB70FB78D1
:1045900003F00702796813469B001344DB000B44C9
:1045A00003F5B6731B6818460C37BD465DF8047BEF
:1045B000704780B586B000AFF8607A603B600B460C
:1045C000FB72FB7A03F0070213469B001344DB00E7
:1045D0001033FA6813447B617B697A685A617B699E
:1045E0003A689A617B69012283F824207B693A68E2
:1045F0001A627B690022DA617B6901225A70FB7AB8
:1046000003F00703DAB27B691A70FB681B687969EB
:10461000184606F0A4FC002318461837BD4680BD96
:1046200080B584B000AF78600B46FB70FB7803F078
:1046300007037A681279934201D901233EE097F982
:104640000330002B0EDAFB7803F0070213469B00C1
:104650001344DB0010337A681344FB60FB680122CB
:104660005A700CE0FA7813469B001344DB0003F504
:10467000A8737A681344FB60FB6800225A70FB68D9
:1046800001229A70FB7803F00703DAB2FB681A7014
:104690007B6893F89032012B01D102230EE07B68F6
:1046A000012283F890227B681B68F968184607F09E
:1046B00005FA7B68002283F8902200231846103701
:1046C000BD4680BD80B584B000AF78600B46FB70FE
:1046D000FB7803F00F037A681279934201D9012322
:1046E00040E097F90330002B0EDAFB7803F0070265
:1046F00013469B001344DB0010337A681344FB60BD
:10470000FB6801225A700EE0FB7803F007021346A3
:104710009B001344DB0003F5A8737A681344FB6025
:10472000FB6800225A70FB6800229A70FB7803F045
:104730000703DAB2FB681A707B6893F89032012B9A
:1047400001D102230EE07B68012283F890227B686E
:104750001B68F968184607F002FA7B68002283F8A4
:104760009022002318461037BD4680BD80B594B016
:1047700000AF78607AE37B681B68B3F84430A7F831
:104780004230B7F84230DBB203F00F0387F8413014
:1047900097F84130072B01D9012371E397F8413095
:1047A000002B40F04381B7F8423003F01003002B98
:1047B0004CD17B681B681B889BB223F4E14323F038
:1047C00070037B817B681A687B896FEA43436FEAD9
:1047D00053439BB213807B681033BB647B681B68B8
:1047E000B3F850309BB21A46BB6C1B78DB00134405
:1047F0007A681268134403F202431B88C3F3090268
:10480000BB6CDA61BB6C5A69BB6CDB691A44BB6C6C
:104810005A610021786809F074F97B681B7BDBB270
:10482000002B00F02383BB6C9B69002B40F01E83A0
:104830007B681B7BDBB263F07F03DAB27B681B68AB
:10484000A3F84C207B6800221A730FE37B6803F502
:10485000A873BB647B681B681B88FB87FB8F03F412
:104860000063002B7BD07B681B68B3F850309BB291
:104870001A46BB6C1B78DB0013447A681268134439
:1048800003F206431B88C3F30902BB6CDA61BB6CFD
:10489000DB69082B44D07B681B681B889BB223F420
:1048A000804323F070033B823B8A83F480533B8236
:1048B0007B681A683B8A43F07F4343F47F0343F4E9
:1048C000004343F080039BB213807B681B681B8806
:1048D0009BB223F4E04323F04003FB81FB8983F088
:1048E0001003FB817B681A68FB8943F07F4343F424
:1048F0007F0343F4004343F080039BB213807B6843
:104900001B681B889AB240F68F731340BB817B688B
:104910001B68BA8942F0800292B21A800023AFE28B
:104920007B6818687B6803F52671BB6CDA88BB6C02
:10493000DB699BB207F03AFA7B681B681B889AB266
:1049400040F68F7313407B827B681B687A8A42F043
:10495000800292B21A80786809F0A6F886E2B7F968
:104960003E30002B80F282827B681B681B889AB2E3
:1049700040F68F731340FB827B681B68FA8A42F013
:10498000800292B21A807B681B68B3F850309BB2E9
:104990001A46BB6C1B78DB0013447A681268134418
:1049A00003F206431B88C3F30902BB6CDA61BB6CDC
:1049B000DB69002B1ED17B681B681B889BB223F42C
:1049C000804323F07003BB82BB8A83F48053BB8295
:1049D000BB8A83F40053BB827B681A68BB8A43F0AE
:1049E0007F4343F47F0343F4004343F080039BB2CF
:1049F00013803BE2BB6C5B69002B00F037827B6865
:104A00001868BB6C5969BB6CDA88BB6CDB699BB2FC
:104A100007F0CCF9BB6C5A69BB6CDB691A44BB6C00
:104A20005A610021786809F051F81FE27B681B6821
:104A30001A4697F841309B0013441B88FB87B7F94F
:104A40003E30002B80F2F5807B681B681A4697F891
:104A500041309B0013441B889AB240F68F73134079
:104A6000A7F846307B681B681A4697F841309B00D0
:104A70001344B7F8462042F0800292B21A8097F8A9
:104A8000412013469B001344DB0003F5A8737A68AA
:104A90001344BB64BB6C1B7B002B23D17B681B685E
:104AA000B3F850309BB21A46BB6C1B78DB00134442
:104AB0007A681268134403F206431B88C3F30903A0
:104AC000A7F84E30B7F84E30002B00F08D807B6891
:104AD0001868BB6C5969BB6CDA88B7F84E3007F0C0
:104AE00065F981E0BB6CDB78022B09D1FB8F1A469C
:104AF000B96C786800F0C8F90346A7F84E3073E047
:104B00007B681B681A46BB6C1B789B0013441B8890
:104B10009BB223F4E04323F07003A7F844307B6892
:104B20001B681A46BB6C1B789B001A44B7F84430CC
:104B300043F07F4343F47F0343F4004343F0C00357
:104B40009BB213807B681B681A46BB6C1B789B006A
:104B500013441B889BB203F48043002B22D07B6854
:104B60001B68B3F850309BB21A46BB6C1B78DB0055
:104B700013447A681268134403F202431B88C3F398
:104B80000903A7F84E30B7F84E30002B2CD07B68C5
:104B90001868BB6C5969BB6C1A89B7F84E3007F0BE
:104BA00005F921E07B681B68B3F850309BB21A46C8
:104BB000BB6C1B78DB0013447A681268134403F261
:104BC00006431B88C3F30903A7F84E30B7F84E30ED
:104BD000002B09D07B681868BB6C5969BB6C5A897B
:104BE000B7F84E3007F0E2F8BB6CDA69B7F84E3030
:104BF0001A44BB6CDA61BB6C9B69002B05D0B7F81B
:104C00004E20BB6C1B699A4206D2BB6C1B781946BE
:104C1000786808F05BFF0CE0BB6C5A69B7F84E305F
:104C20001A44BB6C5A617B681B68B96C184606F065
:104C300096F9FB8F03F08003002B00F0178197F8A3
:104C4000412013469B001344DB0010337A68134461
:104C5000BB647B681B681A4697F841309B0013447D
:104C60001B889BB223F4E14323F07003BB877B686E
:104C70001B681A4697F841309B001A44BB8F6FEAB5
:104C800043436FEA53439BB21380BB6CDB78012B29
:104C900040F0A180BB6C00229A61BB6C1B7B002B97
:104CA00000F09280FB8F03F04003002B46D0BB6CDA
:104CB0005B78002B26D17B681B68FB617B681B68D7
:104CC000B3F850309BB21A46FB691344FB61BB6CCE
:104CD0001B78DA00FB69134403F20243BB61BB6932
:104CE0001B889BB2C3F309039AB2BB691A80BB69E4
:104CF0001B889BB26FEA43436FEA53439AB2BB6986
:104D00001A8061E0BB6C5B78012B5DD17B681B680E
:104D10007B627B681B68B3F850309BB21A467B6A93
:104D200013447B62BB6C1B78DA007B6A134403F28A
:104D300002433B623B6A00221A8045E07B681B68A5
:104D40007B63BB6C5B78002B26D17B681B68FB62A6
:104D50007B681B68B3F850309BB21A46FB6A134459
:104D6000FB62BB6C1B78DA00FB6A134403F2064358
:104D7000BB62BB6A1B889BB2C3F309039AB2BB6ACE
:104D80001A80BB6A1B889BB26FEA43436FEA5343A6
:104D90009AB2BB6A1A8017E0BB6C5B78012B13D107
:104DA0007B681B68B3F850309BB21A467B6B134488
:104DB0007B63BB6C1B78DA007B6B134403F2064306
:104DC0003B633B6B00221A80BB6C1B7819467868EA
:104DD00008F097FE4AE0FB8F03F48073002B3FD16D
:104DE0007B681B68B3F850309BB21A46BB6C1B78CB
:104DF000DB0013447A681268134403F202431B88F1
:104E0000C3F309037B87BB6C9A697B8F9A4206D9EF
:104E1000BB6C9A697B8FD21ABB6C9A6102E0BB6C47
:104E200000229A61BB6C9B69002B06D1BB6C1B787E
:104E30001946786808F065FE18E0BB6C5A697B8FEC
:104E40001A44BB6C5A61BB6CDA697B8F1A44BB6C29
:104E5000DA617B681B68B96C184606F080F805E0DB
:104E6000FB8F1A46B96C786800F017F97B681B68ED
:104E7000B3F844309BB21BB2002BFFF67CAC00238E
:104E800018465037BD4680BD80B588B000AFF86089
:104E9000B9601346FB80FB8803F48043002B7CD071
:104EA000FB681B68B3F850309BB21A46BB681B788E
:104EB000DB001344FA681268134403F202431B88B0
:104EC000C3F309037B83BB689A697B8B9A4206D341
:104ED000BB689A697B8BD21ABB689A6102E0BB6897
:104EE00000229A61BB689B69002B23D1FB681B6879
:104EF0001A46BB681B789B0013441B889BB223F4A3
:104F0000804323F070033B833B8B83F400533B834C
:104F1000FB681B681A46BB681B789B001A443B8BD6
:104F200043F07F4343F47F0343F4004343F08003A3
:104F30009BB21380FB8803F04003002B1FD0FB685B
:104F40001B681A46BB681B789B0013441B889BB2E6
:104F500023F4E04323F07003FB82FB681B681A46CE
:104F6000BB681B789B001A44FB8A43F07F4343F4E1
:104F70007F0343F4004343F0C0039BB213807B8B59
:104F8000002B00F08580FB681868BB685969BB6816
:104F90001A897B8B06F00AFF7AE0FB681B68B3F87E
:104FA00050309BB21A46BB681B78DB001344FA688A
:104FB0001268134403F206431B88C3F309037B837F
:104FC000BB689A697B8B9A4206D3BB689A697B8BD4
:104FD000D21ABB689A6102E0BB6800229A61BB6882
:104FE0009B69002B23D1FB681B681A46BB681B78A2
:104FF0009B0013441B889BB223F4804323F070036F
:10500000FB83FB8B83F40053FB83FB681B681A460E
:10501000BB681B789B001A44FB8B43F07F4343F42F
:105020007F0343F4004343F080039BB21380FB886B
:1050300003F04003002B1FD1FB681B681A46BB68B6
:105040001B789B0013441B889BB223F4E04323F09E
:105050007003BB83FB681B681A46BB681B789B0008
:105060001A44BB8B43F07F4343F47F0343F4004374
:1050700043F0C0039BB213807B8B002B08D0FB68EE
:105080001868BB685969BB685A897B8B06F08EFE2D
:105090007B8B18462037BD4680BD80B5A6B000AFDB
:1050A000F860B9601346FB80FB8803F04003002BD7
:1050B00000F0F781FB681B68B3F850309BB21A46CA
:1050C000BB681B78DB001344FA681268134403F2D0
:1050D00002431B88C3F30903A7F89630BB689A699B
:1050E000B7F896309A4207D9BB689A69B7F89630F4
:1050F000D21ABB689A6102E0BB6800229A61BB6861
:105100009B69002B40F0E180BB685B78002B26D1C7
:10511000FB681B683B63FB681B68B3F850309BB2AD
:105120001A463B6B13443B63BB681B78DA003B6B4E
:10513000134403F20243FB62FB6A1B889BB2C3F376
:1051400009039AB2FB6A1A80FB6A1B889BB26FEA5A
:1051500043436FEA53439AB2FB6A1A801AE0BB6872
:105160005B78012B16D1FB681B68BB63FB681B686F
:10517000B3F850309BB21A46BB6B1344BB63BB6899
:105180001B78DA00BB6B134403F202437B637B6B37
:1051900000221A80FB681B68BB62BB685B78002B2F
:1051A00026D1FB681B683B62FB681B68B3F8503074
:1051B0009BB21A463B6A13443B62BB681B78DA0019
:1051C0003B6A134403F20643FB61FB691B889BB2F5
:1051D000C3F309039AB2FB691A80FB691B889BB26F
:1051E0006FEA43436FEA53439AB2FB691A8017E0B0
:1051F000BB685B78012B13D1FB681B68B3F8503098
:105200009BB21A46BB6A1344BB62BB681B78DA00C8
:10521000BB6A134403F206437B627B6A00221A8056
:10522000BB68DB78022B23D1FB681B681A46BB687E
:105230001B789B0013441B889BB223F4E04323F0AC
:1052400040037B837B8B83F020037B83FB681B689D
:105250001A46BB681B789B001A447B8B43F07F4344
:1052600043F47F0343F4004343F080039BB2138075
:10527000BB681B781946F86808F043FCFB8803F408
:105280008043002B1FD0FB681B681A46BB681B7845
:105290009B0013441B889BB223F4E04323F070036C
:1052A0003B83FB681B681A46BB681B789B001A444B
:1052B0003B8B43F07F4343F47F0343F4404343F08D
:1052C00080039BB2138000231FE3FB8803F4804319
:1052D000002B21D0FB681B681A46BB681B789B001B
:1052E00013441B889BB223F4E04323F07003A7F818
:1052F0004E30FB681B681A46BB681B789B001A443B
:10530000B7F84E3043F07F4343F47F0343F4404308
:1053100043F080039BB21380BB6893F82430012BC9
:1053200040F0CA82BB685A69B7F896301A44BB6825
:105330005A61BB68DA69B7F896301A44BB68DA611B
:10534000BB681A6ABB681B699A4209D3BB681B69B0
:10535000BB65BB681A6ABB6DD21ABB681A6215E0DE
:10536000BB681B6A002B07D1B7F89630BB65BB68DA
:10537000002283F8242009E0BB68002283F824205F
:10538000BB681B6ABB65BB6800221A62BB685B789E
:10539000002B5FD1FB681B683B64FB681B68B3F89C
:1053A00050309BB21A463B6C13443B64BB681B787D
:1053B000DA003B6C134403F20243FB63FB6B1B8874
:1053C0009BB2C3F309039AB2FB6B1A80BB6D002B2F
:1053D0000AD1FB6B1B889BB26FEA43436FEA5343CE
:1053E0009AB2FB6B1A8051E0BB6D3E2B16D8BB6D99
:1053F0005B083B65BB6D03F00103002B02D03B6DE6
:1054000001333B65FB6B1B889AB23B6D9BB29B02E1
:105410009BB213439AB2FB6B1A8037E0BB6D5B09FA
:105420003B65BB6D03F01F03002B02D13B6D013BBD
:105430003B65FB6B1B889AB23B6D9BB29B029BB298
:1054400013439BB26FEA43436FEA53439AB2FB6B39
:105450001A801BE0BB685B78012B17D1FB681B68C7
:10546000BB64FB681B68B3F850309BB21A46BB6C38
:105470001344BB64BB681B78DA00BB6C134403F2B3
:1054800002437B64BB6D9AB27B6C1A80FB68186820
:10549000BB685969BB681A89BB6D9BB206F043FCB7
:1054A0000AE2FB681B68B3F850309BB21A46BB682F
:1054B0001B78DB001344FA681268134403F20643B6
:1054C0001B88C3F30903A7F89630BB689A69B7F83D
:1054D00096309A4207D3BB689A69B7F89630D21AC9
:1054E000BB689A6102E0BB6800229A61BB689B6955
:1054F000002B40F0F680BB685B78002B26D1FB6860
:105500001B687B67FB681B68B3F850309BB21A4678
:105510007B6F13447B67BB681B78DA007B6F134497
:1055200003F202433B673B6F1B889BB2C3F3090343
:105530009AB23B6F1A803B6F1B889BB26FEA434362
:105540006FEA53439AB23B6F1A801AE0BB685B78EC
:10555000012B16D1FB681B68FB67FB681B68B3F85F
:1055600050309BB21A46FB6F1344FB67BB681B7835
:10557000DA00FB6F134403F20243BB67BB6F0022E8
:105580001A80FB681B68C7F88430BB685B78002B07
:105590002FD1FB681B68C7F88C30FB681B68B3F819
:1055A00050309BB21A46D7F88C301344C7F88C3071
:1055B000BB681B78DA00D7F88C30134403F206433B
:1055C000C7F88830D7F888301B889BB2C3F309032B
:1055D0009AB2D7F888301A80D7F888301B889BB2E7
:1055E0006FEA43436FEA53439AB2D7F888301A8080
:1055F0001CE0BB685B78012B18D1FB681B68B3F813
:1056000050309BB21A46D7F884301344C7F8843020
:10561000BB681B78DA00D7F88430134403F20643E2
:10562000C7F88030D7F8803000221A80BB68DB785A
:10563000022B27D1FB681B681A46BB681B789B00AE
:1056400013441B889BB223F4E04323F04003A7F8E4
:105650009430B7F8943083F02003A7F89430FB68B7
:105660001B681A46BB681B789B001A44B7F8943035
:1056700043F07F4343F47F0343F4004343F080034C
:105680009BB21380BB681B781946F86808F039FA9A
:10569000FB8803F48043002B21D1FB681B681A466A
:1056A000BB681B789B0013441B889BB223F4E04328
:1056B00023F07003A7F89230FB681B681A46BB689A
:1056C0001B789B001A44B7F8923043F07F4343F4B1
:1056D0007F0343F4404343F080039BB213800023D5
:1056E00013E1FB8803F48043002B21D1FB681B6886
:1056F0001A46BB681B789B0013441B889BB223F49B
:10570000E04323F07003A7F85630FB681B681A4685
:10571000BB681B789B001A44B7F8563043F07F43B0
:1057200043F47F0343F4404343F080039BB2138070
:10573000BB6893F82430012B40F0BE80BB685A69E7
:10574000B7F896301A44BB685A61BB68DA69B7F893
:1057500096301A44BB68DA61BB681A6ABB681B6979
:105760009A4209D3BB681B69BB65BB681A6ABB6DEB
:10577000D21ABB681A6215E0BB681B6A002B07D1FE
:10578000B7F89630BB65BB68002283F8242009E097
:10579000BB681B6ABB65BB6800221A62BB6800223B
:1057A00083F82420FB681B68FB65BB685B78002BD3
:1057B0005FD1FB681B68BB66FB681B68B3F85030A1
:1057C0009BB21A46BB6E1344BB66BB681B78DA00FB
:1057D000BB6E134403F206437B667B6E1B889BB251
:1057E000C3F309039AB27B6E1A80BB6D002B0AD1FA
:1057F0007B6E1B889BB26FEA43436FEA53439AB2B6
:105800007B6E1A804EE0BB6D3E2B16D8BB6D5B08DD
:105810003B66BB6D03F00103002B02D03B6E0133EE
:105820003B667B6E1B889AB23B6E9BB29B029BB21F
:1058300013439AB27B6E1A8034E0BB6D5B093B6602
:10584000BB6D03F01F03002B02D13B6E013B3B6697
:105850007B6E1B889AB23B6E9BB29B029BB213433A
:105860009BB26FEA43436FEA53439AB27B6E1A804E
:1058700018E0BB685B78012B14D1FB681B68B3F898
:1058800050309BB21A46FB6D1344FB65BB681B7816
:10589000DA00FB6D134403F20643FB66BB6D9AB25C
:1058A000FB6E1A80FB681868BB685969BB685A8927
:1058B000BB6D9BB206F037FAFB681B681A46BB68E3
:1058C0001B789B0013441B889BB223F4E04323F016
:1058D0004003FB82FB8A83F01003FB82FB8A83F088
:1058E0002003FB82FB681B681A46BB681B789B0081
:1058F0001A44FB8A43F07F4343F47F0343F400439D
:1059000043F080039BB21380002318469837BD46AE
:1059100080BD80B487B000AFF8607B600B467B81B0
:1059200013463B817B8903F080039BB2002B0BD095
:105930007B8903F0070213469B001344DB001033FE
:10594000FA6813447B6109E07A8913469B0013448B
:10595000DB0003F5A873FA6813447B613B89002BD5
:1059600007D17B6900221A737B689AB27B69DA805F
:105970000BE07B6901221A737B689AB27B691A81FA
:105980007B681B0C9AB27B695A81002318461C372E
:10599000BD465DF8047B704780B485B000AF786089
:1059A0007B681B68FB607B680122C3F8D0227B68A0
:1059B000002283F8C822FB68B3F854309BB243F04E
:1059C00001039AB2FB68A3F85420FB68B3F8543083
:1059D0009BB243F002039AB2FB68A3F85420002361
:1059E00018461437BD465DF8047B704780B485B017
:1059F00000AF78607B68002B41D14B4B1B6803F4F0
:105A0000C063B3F5806F31D1474BD3F88030464A3D
:105A100023F48073C2F88030434B1B6823F4C063C7
:105A2000414A43F400731360404B1B68322202FB6F
:105A300003F33F4AA2FB03239B0C0133FB6002E00C
:105A4000FB68013BFB60384B5B6903F48063B3F593
:105A5000806F02D1FB68002BF2D1334B5B6903F4FA
:105A60008063B3F5806F58D1032357E02E4BD3F8F2
:105A700080302D4A23F48073C2F880304DE07B687B
:105A8000B3F5007F41D1284B1B6803F4C063B3F525
:105A9000806F31D1244BD3F88030234A43F4807394
:105AA000C2F88030204B1B6823F4C0631E4A43F4C5
:105AB000007313601D4B1B68322202FB03F31C4A68
:105AC000A2FB03239B0C0133FB6002E0FB68013B5C
:105AD000FB60154B5B6903F48063B3F5806F02D103
